:1000000012C021C020C01FC089C21DC01CC01BC09F
:100010001AC019C018C05BC116C015C014C013C0E7
:1000200012C011C010C011241FBECFE5D4E0DEBF46
:10003000CDBF10E0A0E6B0E001C01D92AB37B10724
:10004000E1F74FD384C3DCCF409177005091780023
:100050006091790070917A0081E0403D5544674499
:10006000794E09F480E0089580ED95E4A7E4B9EEB7
:100070008093770090937800A0937900B0937A00F2
:100080000895A598F3D180EA9FE00197009729F0A1
:100090009D9BFBCF8FEF9FEF08958DEF9FEF08950E
:1000A000A498EFDF892B31F083B3A59A82958170F4
:1000B00090E008958DEF9FEF0895A59B04C0A4984C
:1000C000D5D1DFDFD3D1A49AD1D1A59ACFC18823CE
:1000D00011F0A49801C0A49AD4DF892B21F0A59A2D
:1000E0008FEF9FEF08958DEF9FEF08951F93CF93AC
:1000F000DF93182FD8E0C0E0D3DF97FD0FC0CC0FFF
:10010000892B09F0C160D150B9F781E08127DFDF89
:100110008F3F2FEF920711F48C2F90E0DF91CF915A
:100120001F910895CF93DF9300D0CDB7DEB7A49A87
:10013000A8DF8F3F2FEF920731F4A49889839A8329
:1001400095D19A8189810F900F90DF91CF91089579
:100150000F931F93CF93DF93C7E0D0E0082F10E0F9
:10016000C8010C2E02C0959587950A94E2F781701C
:10017000AEDF9C012F3F8FEF380749F4219780F7BE
:100180008FDF97FD08C0019721F48BEF03C0C901F1
:1001900002C08FEF9FEFDF91CF911F910F910895D4
:1001A0008F929F92BF92CF92DF92EF92FF920F9326
:1001B0001F93CF93DF931F92CDB7DEB76A017C0107
:1001C000812C912C062F10E001501109B82C8616B5
:1001D000A0F481E08016910609F480E0698386DF4F
:1001E000698197FF03C0F601B08209C0F7018193CE
:1001F0007F01FFEF8F1A9F0AE9CF8FEF9FEF0F90DC
:10020000DF91CF911F910F91FF90EF90DF90CF90F2
:10021000BF909F908F9008950F931F93CF93DF937C
:1002200000D0CDB7DEB76A83898347DF898190E04C
:100230006A81662321F0880F991F816001C0880FB1
:1002400087DF8C010B3F8FEF180709F46BDFC801C4
:100250000F900F90DF91CF911F910F910895CF9341
:10026000DF9361E0D9DF8F3F2FEF920749F480E001
:100270003DDFEC0197FD02C0CFEFDFEF53DFCE0192
:10028000DF91CF9108950F931F93CF93DF931F9228
:10029000CDB7DEB7898311DF8981880F816058DF90
:1002A0008C010F3F8FEF180719F480E01FDF8C01DE
:1002B00039DFC8010F90DF91CF911F910F91089501
:1002C0001092600008955D9BFECF8CB908951F9237
:1002D0000F920FB60F921124EF92FF920F931F937C
:1002E0002F933F934F935F936F937F938F939F933E
:1002F000AF93BF93EF93FF93CF93DF93CDB7DEB769
:100300006097DEBFCDBF1CB106D180916000853102
:1003100008F07DC0E091600081E08E0F8093600066
:10032000F0E0EF59FF4F108380916000853109F0B4
:1003300070C0A895E1E6F0E080E090E0219192277E
:10034000092E0294202D2F702927392F3025330FA5
:10035000307E2327302D3927307F3695092E000C2B
:10036000331F9695969596959F7193279827822F80
:1003700020E0E437F20711F7209174003091750006
:100380008217930711F081E241C0809161008D32A4
:10039000D9F480916200909163002DD160E1CE018B
:1003A00001962DD182E58FDF8E010F5F1F4F7E01F9
:1003B00081E1E80EF11CF80181918F0184DF0E15B7
:1003C0001F05C9F782E722C08E3561F48091620073
:1003D0009091630040E164E670E0D7D08FE473DF72
:1003E0008BE414C0833929F43FDE83E56CDF84E5B8
:1003F0000DC0803E51F428E088E190E00FB6F894FB
:10040000A89581BD0FBE21BD02C08FE35CDF1092B5
:10041000600060960FB6F894DEBF0FBECDBFDF91CF
:10042000CF91FF91EF91BF91AF919F918F917F916C
:100430006F915F914F913F912F911F910F91FF907D
:10044000EF900F900FBE0F901F90189589E189B91A
:1004500088E98AB90895009741F0E7EEF3E0319713
:10046000F1F700C000000197F6CF089500C000C06A
:1004700008950F931F93CF93DF93C7E0D0E0082F29
:1004800010E0C8010C2E02C0959587950A94E2F7FA
:1004900080FF02C0979A01C09798E8DF969AE6DF3E
:1004A0009698219770F7DF91CF911F910F91089542
:1004B000CF93DF931F92CDB7DEB795986983D9DFCD
:1004C0006981862FD6DF959A0F90DF91CF9108959D
:1004D0008F5FEECFCF93DF93D3E0C0E0CF5F60E0DC
:1004E0008C2FE6DFC830D1F761E08CE0E1DF60E01F
:1004F00089E0DEDF67E08BE0DBDF63E08AE0D8DF06
:1005000060E08FE0D5DF84E190E0A5DFD15029F7EE
:10051000DF91CF9108951092760008951F920F9267
:100520000FB60F9211242F933F934F935F936F93C6
:100530007F938F939F93AF93BF93EF93FF9383E842
:1005400084BD809176008F5F8093760080917600E5
:10055000823318F010927600B3DEFF91EF91BF91D5
:10056000AF919F918F917F916F915F914F913F914B
:100570002F910F900FBE0F901F90189583E884BDA8
:1005800083E085BD80E489BF0895EF92FF920F93C9
:100590001F93CF93DF93EC01062FF72E142F60E00B
:1005A00080E53ADE019661F0BDDD1123E9F087E0D8
:1005B00090E0DF91CF911F910F91FF90EF904BCF83
:1005C0008D2FC6DD019681F78C2FC2DD019661F774
:1005D000E02EC02FDF2D8C2F8E19811728F78991DF
:1005E000B7DD0196C1F3E0CFDF91CF911F910F915D
:1005F000FF90EF90089540E060E070E0C6CFFF927A
:100600000F931F93CF93DF931F92CDB7DEB78C016B
:10061000F62E61E080E500DE019631F4AE014F5F19
:100620005F4F6F2DC801BCDD7DDD0F90DF91CF9155
:100630001F910F91FF900895BF92CF92DF92EF929A
:10064000FF920F931F93CF93DF93CDB7DEB7299718
:100650000FB6F894DEBF0FBECDBFE12CF12CF4DC59
:10066000882379F1A895C701C6DF69E0CE0101961C
:10067000C6DF09810F3F29F1802F829586958695E7
:1006800083700F7310E00B5F1F4F23E0829FC00148
:10069000112402C0000F111F8A95E2F7CE010296C5
:1006A0006C01B12CF60161916F018B2D11DFB394B8
:1006B000F8E0BF12F7CFC801CEDE29E0E20EF11C50
:1006C000CECF29960FB6F894DEBF0FBECDBFDF9117
:1006D000CF911F910F91FF90EF90DF90CF90BF903F
:1006E0000895A8952FE088E190E00FB6F894A895BA
:1006F00081BD0FBE21BDEEDE8AEF90E0ACDEA89595
:1007000097988F9A96988E9A959A8D9AAC98A49865
:10071000AD98A598DFDE9ADE31DF78942FE088E18E
:1007200090E00FB6F894A89581BD0FBE21BD8091D1
:10073000770090917800A0917900B0917A00803D87
:100740009544A744B94E99F3C5DE76DFF0CFF8940F
:02075000FFCFD9
:00000001FF
